{
  "_format": "hh-sol-artifact-1",
  "contractName": "CareerFair",
  "sourceName": "contracts/CareerFair.sol",
  "abi": [
    {
      "inputs": [],
      "stateMutability": "nonpayable",
      "type": "constructor"
    },
    {
      "inputs": [
        {
          "internalType": "string",
          "name": "companyName",
          "type": "string"
        }
      ],
      "name": "add",
      "outputs": [],
      "stateMutability": "nonpayable",
      "type": "function"
    },
    {
      "inputs": [],
      "name": "enroll",
      "outputs": [],
      "stateMutability": "nonpayable",
      "type": "function"
    },
    {
      "inputs": [],
      "name": "getAttendees",
      "outputs": [
        {
          "internalType": "address[]",
          "name": "",
          "type": "address[]"
        }
      ],
      "stateMutability": "view",
      "type": "function"
    },
    {
      "inputs": [],
      "name": "getCompanies",
      "outputs": [
        {
          "internalType": "string[]",
          "name": "",
          "type": "string[]"
        }
      ],
      "stateMutability": "view",
      "type": "function"
    },
    {
      "inputs": [],
      "name": "unenroll",
      "outputs": [],
      "stateMutability": "nonpayable",
      "type": "function"
    }
  ],
  "bytecode": "0x60806040523480156200001157600080fd5b5033600260006101000a81548173ffffffffffffffffffffffffffffffffffffffff021916908373ffffffffffffffffffffffffffffffffffffffff160217905550600067ffffffffffffffff8111156200007157620000706200074d565b5b604051908082528060200260200182016040528015620000a05781602001602082028036833780820191505090505b5060019080519060200190620000b8929190620005d1565b50600067ffffffffffffffff811115620000d757620000d66200074d565b5b6040519080825280602002602001820160405280156200010c57816020015b6060815260200190600190039081620000f65790505b50600090805190602001906200012492919062000660565b506200016b6040518060400160405280600681526020017f416d617a6f6e00000000000000000000000000000000000000000000000000008152506200031560201b60201c565b620001b16040518060400160405280600681526020017f476f6f676c6500000000000000000000000000000000000000000000000000008152506200031560201b60201c565b620001f76040518060400160405280600581526020017f4170706c650000000000000000000000000000000000000000000000000000008152506200031560201b60201c565b6200023d6040518060400160405280600981526020017f4d6963726f736f667400000000000000000000000000000000000000000000008152506200031560201b60201c565b620002836040518060400160405280600481526020017f4d657461000000000000000000000000000000000000000000000000000000008152506200031560201b60201c565b620002c96040518060400160405280600681526020017f47656d696e6900000000000000000000000000000000000000000000000000008152506200031560201b60201c565b6200030f6040518060400160405280600881526020017f53656375726545640000000000000000000000000000000000000000000000008152506200031560201b60201c565b62000d93565b600260009054906101000a900473ffffffffffffffffffffffffffffffffffffffff1673ffffffffffffffffffffffffffffffffffffffff163373ffffffffffffffffffffffffffffffffffffffff1614620003a8576040517f08c379a00000000000000000000000000000000000000000000000000000000081526004016200039f9062000803565b60405180910390fd5b620003c981604051806020016040528060008152506200057460201b60201c565b156200040c576040517f08c379a0000000000000000000000000000000000000000000000000000000008152600401620004039062000875565b60405180910390fd5b60005b6000805490508110156200053957620004e06000828154811062000438576200043762000897565b5b9060005260206000200180546200044f90620008f5565b80601f01602080910402602001604051908101604052809291908181526020018280546200047d90620008f5565b8015620004ce5780601f10620004a257610100808354040283529160200191620004ce565b820191906000526020600020905b815481529060010190602001808311620004b057829003601f168201915b5050505050836200057460201b60201c565b1562000523576040517f08c379a00000000000000000000000000000000000000000000000000000000081526004016200051a90620009a0565b60405180910390fd5b80806200053090620009fb565b9150506200040f565b5060008190806001815401808255809150506001900390600052602060002001600090919091909150908162000570919062000c25565b5050565b60008160405160200162000589919062000d7a565b6040516020818303038152906040528051906020012083604051602001620005b2919062000d7a565b6040516020818303038152906040528051906020012014905092915050565b8280548282559060005260206000209081019282156200064d579160200282015b828111156200064c5782518260006101000a81548173ffffffffffffffffffffffffffffffffffffffff021916908373ffffffffffffffffffffffffffffffffffffffff16021790555091602001919060010190620005f2565b5b5090506200065c9190620006c0565b5090565b828054828255906000526020600020908101928215620006ad579160200282015b82811115620006ac5782518290816200069b919062000c25565b509160200191906001019062000681565b5b509050620006bc9190620006df565b5090565b5b80821115620006db576000816000905550600101620006c1565b5090565b5b80821115620007035760008181620006f9919062000707565b50600101620006e0565b5090565b5080546200071590620008f5565b6000825580601f106200072957506200074a565b601f016020900490600052602060002090810190620007499190620006c0565b5b50565b7f4e487b7100000000000000000000000000000000000000000000000000000000600052604160045260246000fd5b600082825260208201905092915050565b7f4f6e6c7920746865206f776e65722063616e2063616c6c20746869732066756e60008201527f6374696f6e000000000000000000000000000000000000000000000000000000602082015250565b6000620007eb6025836200077c565b9150620007f8826200078d565b604082019050919050565b600060208201905081810360008301526200081e81620007dc565b9050919050565b7f596f75206d757374206e616d6520697420736f6d657468696e67000000000000600082015250565b60006200085d601a836200077c565b91506200086a8262000825565b602082019050919050565b6000602082019050818103600083015262000890816200084e565b9050919050565b7f4e487b7100000000000000000000000000000000000000000000000000000000600052603260045260246000fd5b7f4e487b7100000000000000000000000000000000000000000000000000000000600052602260045260246000fd5b600060028204905060018216806200090e57607f821691505b602082108103620009245762000923620008c6565b5b50919050565b7f54686520636f6d70616e7920616c72656164792065786973747320686572652e60008201527f20416464206120646966666572656e74206f6e65000000000000000000000000602082015250565b6000620009886034836200077c565b915062000995826200092a565b604082019050919050565b60006020820190508181036000830152620009bb8162000979565b9050919050565b7f4e487b7100000000000000000000000000000000000000000000000000000000600052601160045260246000fd5b6000819050919050565b600062000a0882620009f1565b91507fffffffffffffffffffffffffffffffffffffffffffffffffffffffffffffffff820362000a3d5762000a3c620009c2565b5b600182019050919050565b600081519050919050565b60008190508160005260206000209050919050565b60006020601f8301049050919050565b600082821b905092915050565b60006008830262000ab77fffffffffffffffffffffffffffffffffffffffffffffffffffffffffffffffff8262000a78565b62000ac3868362000a78565b95508019841693508086168417925050509392505050565b6000819050919050565b600062000b0662000b0062000afa84620009f1565b62000adb565b620009f1565b9050919050565b6000819050919050565b62000b228362000ae5565b62000b3a62000b318262000b0d565b84845462000a85565b825550505050565b600090565b62000b5162000b42565b62000b5e81848462000b17565b505050565b5b8181101562000b865762000b7a60008262000b47565b60018101905062000b64565b5050565b601f82111562000bd55762000b9f8162000a53565b62000baa8462000a68565b8101602085101562000bba578190505b62000bd262000bc98562000a68565b83018262000b63565b50505b505050565b600082821c905092915050565b600062000bfa6000198460080262000bda565b1980831691505092915050565b600062000c15838362000be7565b9150826002028217905092915050565b62000c308262000a48565b67ffffffffffffffff81111562000c4c5762000c4b6200074d565b5b62000c588254620008f5565b62000c6582828562000b8a565b600060209050601f83116001811462000c9d576000841562000c88578287015190505b62000c94858262000c07565b86555062000d04565b601f19841662000cad8662000a53565b60005b8281101562000cd75784890151825560018201915060208501945060208101905062000cb0565b8683101562000cf7578489015162000cf3601f89168262000be7565b8355505b6001600288020188555050505b505050505050565b600081905092915050565b60005b8381101562000d3757808201518184015260208101905062000d1a565b60008484015250505050565b600062000d508262000a48565b62000d5c818562000d0c565b935062000d6e81856020860162000d17565b80840191505092915050565b600062000d88828462000d43565b915081905092915050565b6113128062000da36000396000f3fe608060405234801561001057600080fd5b50600436106100575760003560e01c80630c0b66911461005c57806320f3b4181461007a5780634165a1bb14610084578063b0c8f9dc146100a2578063e65f2a7e146100be575b600080fd5b6100646100c8565b604051610071919061090d565b60405180910390f35b6100826101a1565b005b61008c61036a565b6040516100999190610a1f565b60405180910390f35b6100bc60048036038101906100b79190610b8a565b6103f8565b005b6100c661062d565b005b60606000805480602002602001604051908101604052809291908181526020016000905b8282101561019857838290600052602060002001805461010b90610c02565b80601f016020809104026020016040519081016040528092919081815260200182805461013790610c02565b80156101845780601f1061015957610100808354040283529160200191610184565b820191906000526020600020905b81548152906001019060200180831161016757829003601f168201915b5050505050815260200190600101906100ec565b50505050905090565b60005b60018054905081101561032c573373ffffffffffffffffffffffffffffffffffffffff16600182815481106101dc576101db610c33565b5b9060005260206000200160009054906101000a900473ffffffffffffffffffffffffffffffffffffffff1673ffffffffffffffffffffffffffffffffffffffff16036103195760018080805490506102349190610c9b565b8154811061024557610244610c33565b5b9060005260206000200160009054906101000a900473ffffffffffffffffffffffffffffffffffffffff166001828154811061028457610283610c33565b5b9060005260206000200160006101000a81548173ffffffffffffffffffffffffffffffffffffffff021916908373ffffffffffffffffffffffffffffffffffffffff16021790555060018054806102de576102dd610ccf565b5b6001900381819060005260206000200160006101000a81549073ffffffffffffffffffffffffffffffffffffffff0219169055905550610368565b808061032490610cfe565b9150506101a4565b506040517f08c379a000000000000000000000000000000000000000000000000000000000815260040161035f90610dc9565b60405180910390fd5b565b606060018054806020026020016040519081016040528092919081815260200182805480156103ee57602002820191906000526020600020905b8160009054906101000a900473ffffffffffffffffffffffffffffffffffffffff1673ffffffffffffffffffffffffffffffffffffffff16815260200190600101908083116103a4575b5050505050905090565b600260009054906101000a900473ffffffffffffffffffffffffffffffffffffffff1673ffffffffffffffffffffffffffffffffffffffff163373ffffffffffffffffffffffffffffffffffffffff1614610488576040517f08c379a000000000000000000000000000000000000000000000000000000000815260040161047f90610e5b565b60405180910390fd5b6104a18160405180602001604052806000815250610762565b156104e1576040517f08c379a00000000000000000000000000000000000000000000000000000000081526004016104d890610ec7565b60405180910390fd5b60005b6000805490508110156105f4576105a16000828154811061050857610507610c33565b5b90600052602060002001805461051d90610c02565b80601f016020809104026020016040519081016040528092919081815260200182805461054990610c02565b80156105965780601f1061056b57610100808354040283529160200191610596565b820191906000526020600020905b81548152906001019060200180831161057957829003601f168201915b505050505083610762565b156105e1576040517f08c379a00000000000000000000000000000000000000000000000000000000081526004016105d890610f59565b60405180910390fd5b80806105ec90610cfe565b9150506104e4565b506000819080600181540180825580915050600190039060005260206000200160009091909190915090816106299190611125565b5050565b60005b6001805490508110156106fc573373ffffffffffffffffffffffffffffffffffffffff166001828154811061066857610667610c33565b5b9060005260206000200160009054906101000a900473ffffffffffffffffffffffffffffffffffffffff1673ffffffffffffffffffffffffffffffffffffffff16036106e9576040517f08c379a00000000000000000000000000000000000000000000000000000000081526004016106e090611269565b60405180910390fd5b80806106f490610cfe565b915050610630565b506001339080600181540180825580915050600190039060005260206000200160009091909190916101000a81548173ffffffffffffffffffffffffffffffffffffffff021916908373ffffffffffffffffffffffffffffffffffffffff160217905550565b60008160405160200161077591906112c5565b604051602081830303815290604052805190602001208360405160200161079c91906112c5565b6040516020818303038152906040528051906020012014905092915050565b600081519050919050565b600082825260208201905092915050565b6000819050602082019050919050565b600081519050919050565b600082825260208201905092915050565b60005b83811015610821578082015181840152602081019050610806565b60008484015250505050565b6000601f19601f8301169050919050565b6000610849826107e7565b61085381856107f2565b9350610863818560208601610803565b61086c8161082d565b840191505092915050565b6000610883838361083e565b905092915050565b6000602082019050919050565b60006108a3826107bb565b6108ad81856107c6565b9350836020820285016108bf856107d7565b8060005b858110156108fb57848403895281516108dc8582610877565b94506108e78361088b565b925060208a019950506001810190506108c3565b50829750879550505050505092915050565b600060208201905081810360008301526109278184610898565b905092915050565b600081519050919050565b600082825260208201905092915050565b6000819050602082019050919050565b600073ffffffffffffffffffffffffffffffffffffffff82169050919050565b60006109868261095b565b9050919050565b6109968161097b565b82525050565b60006109a8838361098d565b60208301905092915050565b6000602082019050919050565b60006109cc8261092f565b6109d6818561093a565b93506109e18361094b565b8060005b83811015610a125781516109f9888261099c565b9750610a04836109b4565b9250506001810190506109e5565b5085935050505092915050565b60006020820190508181036000830152610a3981846109c1565b905092915050565b6000604051905090565b600080fd5b600080fd5b600080fd5b600080fd5b7f4e487b7100000000000000000000000000000000000000000000000000000000600052604160045260246000fd5b610a978261082d565b810181811067ffffffffffffffff82111715610ab657610ab5610a5f565b5b80604052505050565b6000610ac9610a41565b9050610ad58282610a8e565b919050565b600067ffffffffffffffff821115610af557610af4610a5f565b5b610afe8261082d565b9050602081019050919050565b82818337600083830152505050565b6000610b2d610b2884610ada565b610abf565b905082815260208101848484011115610b4957610b48610a5a565b5b610b54848285610b0b565b509392505050565b600082601f830112610b7157610b70610a55565b5b8135610b81848260208601610b1a565b91505092915050565b600060208284031215610ba057610b9f610a4b565b5b600082013567ffffffffffffffff811115610bbe57610bbd610a50565b5b610bca84828501610b5c565b91505092915050565b7f4e487b7100000000000000000000000000000000000000000000000000000000600052602260045260246000fd5b60006002820490506001821680610c1a57607f821691505b602082108103610c2d57610c2c610bd3565b5b50919050565b7f4e487b7100000000000000000000000000000000000000000000000000000000600052603260045260246000fd5b6000819050919050565b7f4e487b7100000000000000000000000000000000000000000000000000000000600052601160045260246000fd5b6000610ca682610c62565b9150610cb183610c62565b9250828203905081811115610cc957610cc8610c6c565b5b92915050565b7f4e487b7100000000000000000000000000000000000000000000000000000000600052603160045260246000fd5b6000610d0982610c62565b91507fffffffffffffffffffffffffffffffffffffffffffffffffffffffffffffffff8203610d3b57610d3a610c6c565b5b600182019050919050565b600082825260208201905092915050565b7f596f752063616e206f6e6c7920756e726f6c6c20696620796f7520617265207260008201527f65676973746572656420776869636820796f7520617265206e6f740000000000602082015250565b6000610db3603b83610d46565b9150610dbe82610d57565b604082019050919050565b60006020820190508181036000830152610de281610da6565b9050919050565b7f4f6e6c7920746865206f776e65722063616e2063616c6c20746869732066756e60008201527f6374696f6e000000000000000000000000000000000000000000000000000000602082015250565b6000610e45602583610d46565b9150610e5082610de9565b604082019050919050565b60006020820190508181036000830152610e7481610e38565b9050919050565b7f596f75206d757374206e616d6520697420736f6d657468696e67000000000000600082015250565b6000610eb1601a83610d46565b9150610ebc82610e7b565b602082019050919050565b60006020820190508181036000830152610ee081610ea4565b9050919050565b7f54686520636f6d70616e7920616c72656164792065786973747320686572652e60008201527f20416464206120646966666572656e74206f6e65000000000000000000000000602082015250565b6000610f43603483610d46565b9150610f4e82610ee7565b604082019050919050565b60006020820190508181036000830152610f7281610f36565b9050919050565b60008190508160005260206000209050919050565b60006020601f8301049050919050565b600082821b905092915050565b600060088302610fdb7fffffffffffffffffffffffffffffffffffffffffffffffffffffffffffffffff82610f9e565b610fe58683610f9e565b95508019841693508086168417925050509392505050565b6000819050919050565b600061102261101d61101884610c62565b610ffd565b610c62565b9050919050565b6000819050919050565b61103c83611007565b61105061104882611029565b848454610fab565b825550505050565b600090565b611065611058565b611070818484611033565b505050565b5b818110156110945761108960008261105d565b600181019050611076565b5050565b601f8211156110d9576110aa81610f79565b6110b384610f8e565b810160208510156110c2578190505b6110d66110ce85610f8e565b830182611075565b50505b505050565b600082821c905092915050565b60006110fc600019846008026110de565b1980831691505092915050565b600061111583836110eb565b9150826002028217905092915050565b61112e826107e7565b67ffffffffffffffff81111561114757611146610a5f565b5b6111518254610c02565b61115c828285611098565b600060209050601f83116001811461118f576000841561117d578287015190505b6111878582611109565b8655506111ef565b601f19841661119d86610f79565b60005b828110156111c5578489015182556001820191506020850194506020810190506111a0565b868310156111e257848901516111de601f8916826110eb565b8355505b6001600288020188555050505b505050505050565b7f596f752061726520616c726561647920726567697374657265642c20796f752060008201527f63616e277420726567697374657220616761696e000000000000000000000000602082015250565b6000611253603483610d46565b915061125e826111f7565b604082019050919050565b6000602082019050818103600083015261128281611246565b9050919050565b600081905092915050565b600061129f826107e7565b6112a98185611289565b93506112b9818560208601610803565b80840191505092915050565b60006112d18284611294565b91508190509291505056fea26469706673582212207be457b4aa9aca1cd6b8c17207f5ebecad0af1cf54d20e7817cf4e39646dfa0964736f6c63430008130033",
  "linkReferences": {},
  "deployedLinkReferences": {}
}